{
  "_format": "hh-sol-artifact-1",
  "contractName": "LuckyNftSwap",
  "sourceName": "contracts/LuckyNftSwap.sol",
  "abi": [
    {
      "inputs": [
        {
          "internalType": "uint256",
          "name": "_poolCap",
          "type": "uint256"
        }
      ],
      "stateMutability": "nonpayable",
      "type": "constructor"
    },
    {
      "anonymous": false,
      "inputs": [
        {
          "indexed": true,
          "internalType": "address",
          "name": "previousOwner",
          "type": "address"
        },
        {
          "indexed": true,
          "internalType": "address",
          "name": "newOwner",
          "type": "address"
        }
      ],
      "name": "OwnershipTransferred",
      "type": "event"
    },
    {
      "anonymous": false,
      "inputs": [
        {
          "indexed": false,
          "internalType": "uint256",
          "name": "_move",
          "type": "uint256"
        }
      ],
      "name": "Shifted",
      "type": "event"
    },
    {
      "anonymous": false,
      "inputs": [
        {
          "indexed": false,
          "internalType": "address",
          "name": "",
          "type": "address"
        },
        {
          "indexed": false,
          "internalType": "address",
          "name": "_addColection",
          "type": "address"
        },
        {
          "indexed": false,
          "internalType": "uint256",
          "name": "tokenId",
          "type": "uint256"
        }
      ],
      "name": "TokenDeposit",
      "type": "event"
    },
    {
      "anonymous": false,
      "inputs": [
        {
          "indexed": false,
          "internalType": "address",
          "name": "recipient",
          "type": "address"
        },
        {
          "indexed": false,
          "internalType": "address",
          "name": "_addColection",
          "type": "address"
        },
        {
          "indexed": false,
          "internalType": "uint256",
          "name": "tokenId",
          "type": "uint256"
        }
      ],
      "name": "TokenSend",
      "type": "event"
    },
    {
      "inputs": [],
      "name": "counter",
      "outputs": [
        {
          "internalType": "uint256",
          "name": "",
          "type": "uint256"
        }
      ],
      "stateMutability": "view",
      "type": "function"
    },
    {
      "inputs": [
        {
          "internalType": "address",
          "name": "_addColection",
          "type": "address"
        },
        {
          "internalType": "uint256",
          "name": "_tokenId",
          "type": "uint256"
        }
      ],
      "name": "deposit",
      "outputs": [],
      "stateMutability": "nonpayable",
      "type": "function"
    },
    {
      "inputs": [
        {
          "internalType": "address",
          "name": "",
          "type": "address"
        }
      ],
      "name": "depositorCounterMap",
      "outputs": [
        {
          "internalType": "uint256",
          "name": "",
          "type": "uint256"
        }
      ],
      "stateMutability": "view",
      "type": "function"
    },
    {
      "inputs": [
        {
          "internalType": "uint256",
          "name": "",
          "type": "uint256"
        }
      ],
      "name": "deposits",
      "outputs": [
        {
          "internalType": "address",
          "name": "nftContractAdcress",
          "type": "address"
        },
        {
          "internalType": "uint256",
          "name": "tokenId",
          "type": "uint256"
        }
      ],
      "stateMutability": "view",
      "type": "function"
    },
    {
      "inputs": [
        {
          "internalType": "address",
          "name": "depositor",
          "type": "address"
        }
      ],
      "name": "getDepositAfterShift",
      "outputs": [
        {
          "components": [
            {
              "internalType": "address",
              "name": "nftContractAdcress",
              "type": "address"
            },
            {
              "internalType": "uint256",
              "name": "tokenId",
              "type": "uint256"
            }
          ],
          "internalType": "struct LuckyNftSwap.Deposit",
          "name": "",
          "type": "tuple"
        }
      ],
      "stateMutability": "view",
      "type": "function"
    },
    {
      "inputs": [],
      "name": "getDeposits",
      "outputs": [
        {
          "components": [
            {
              "internalType": "address",
              "name": "nftContractAdcress",
              "type": "address"
            },
            {
              "internalType": "uint256",
              "name": "tokenId",
              "type": "uint256"
            }
          ],
          "internalType": "struct LuckyNftSwap.Deposit[]",
          "name": "",
          "type": "tuple[]"
        }
      ],
      "stateMutability": "view",
      "type": "function"
    },
    {
      "inputs": [
        {
          "internalType": "address",
          "name": "depositor",
          "type": "address"
        }
      ],
      "name": "getOriginalDeposit",
      "outputs": [
        {
          "components": [
            {
              "internalType": "address",
              "name": "nftContractAdcress",
              "type": "address"
            },
            {
              "internalType": "uint256",
              "name": "tokenId",
              "type": "uint256"
            }
          ],
          "internalType": "struct LuckyNftSwap.Deposit",
          "name": "",
          "type": "tuple"
        }
      ],
      "stateMutability": "view",
      "type": "function"
    },
    {
      "inputs": [
        {
          "internalType": "address",
          "name": "participant",
          "type": "address"
        }
      ],
      "name": "isGameEndedIsAddressDepositor",
      "outputs": [
        {
          "internalType": "bool",
          "name": "",
          "type": "bool"
        },
        {
          "internalType": "bool",
          "name": "",
          "type": "bool"
        }
      ],
      "stateMutability": "view",
      "type": "function"
    },
    {
      "inputs": [
        {
          "internalType": "address",
          "name": "operator",
          "type": "address"
        },
        {
          "internalType": "address",
          "name": "from",
          "type": "address"
        },
        {
          "internalType": "uint256",
          "name": "tokenId",
          "type": "uint256"
        },
        {
          "internalType": "bytes",
          "name": "data",
          "type": "bytes"
        }
      ],
      "name": "onERC721Received",
      "outputs": [
        {
          "internalType": "bytes4",
          "name": "",
          "type": "bytes4"
        }
      ],
      "stateMutability": "nonpayable",
      "type": "function"
    },
    {
      "inputs": [],
      "name": "owner",
      "outputs": [
        {
          "internalType": "address",
          "name": "",
          "type": "address"
        }
      ],
      "stateMutability": "view",
      "type": "function"
    },
    {
      "inputs": [],
      "name": "poolCap",
      "outputs": [
        {
          "internalType": "uint256",
          "name": "",
          "type": "uint256"
        }
      ],
      "stateMutability": "view",
      "type": "function"
    },
    {
      "inputs": [],
      "name": "renounceOwnership",
      "outputs": [],
      "stateMutability": "nonpayable",
      "type": "function"
    },
    {
      "inputs": [
        {
          "internalType": "uint256",
          "name": "_newCap",
          "type": "uint256"
        }
      ],
      "name": "setPoolCap",
      "outputs": [],
      "stateMutability": "nonpayable",
      "type": "function"
    },
    {
      "inputs": [],
      "name": "shift",
      "outputs": [],
      "stateMutability": "nonpayable",
      "type": "function"
    },
    {
      "inputs": [],
      "name": "shiftNumber",
      "outputs": [
        {
          "internalType": "uint256",
          "name": "",
          "type": "uint256"
        }
      ],
      "stateMutability": "view",
      "type": "function"
    },
    {
      "inputs": [
        {
          "internalType": "address",
          "name": "newOwner",
          "type": "address"
        }
      ],
      "name": "transferOwnership",
      "outputs": [],
      "stateMutability": "nonpayable",
      "type": "function"
    },
    {
      "inputs": [
        {
          "internalType": "address",
          "name": "depositor",
          "type": "address"
        }
      ],
      "name": "withdraw",
      "outputs": [],
      "stateMutability": "nonpayable",
      "type": "function"
    }
  ],
  "bytecode": "0x608060405260016003556000600660006101000a81548160ff0219169083151502179055503480156200003157600080fd5b5060405162001cc238038062001cc2833981810160405281019062000057919062000168565b620000776200006b6200008560201b60201c565b6200008d60201b60201c565b8060058190555050620001b8565b600033905090565b60008060009054906101000a900473ffffffffffffffffffffffffffffffffffffffff169050816000806101000a81548173ffffffffffffffffffffffffffffffffffffffff021916908373ffffffffffffffffffffffffffffffffffffffff1602179055508173ffffffffffffffffffffffffffffffffffffffff168173ffffffffffffffffffffffffffffffffffffffff167f8be0079c531659141344cd1fd0a4f28419497f9722a3daafe3b4186f6b6457e060405160405180910390a35050565b60008151905062000162816200019e565b92915050565b6000602082840312156200017b57600080fd5b60006200018b8482850162000151565b91505092915050565b6000819050919050565b620001a98162000194565b8114620001b557600080fd5b50565b611afa80620001c86000396000f3fe608060405234801561001057600080fd5b506004361061010b5760003560e01c806361bc221a116100a2578063b02c43d011610071578063b02c43d0146102a7578063b954dc57146102d8578063d835f535146102f6578063f0c3e96414610312578063f2fde38b146103305761010b565b806361bc221a146102435780636b149d8714610261578063715018a61461027f5780638da5cb5b146102895761010b565b80632d2df827116100de5780632d2df827146101ab57806347e7ef24146101db57806351cff8d9146101f75780635bd6baec146102135761010b565b806312fc41ca14610110578063150b7a021461011a57806317d82c261461014a5780631e0fa1d11461017b575b600080fd5b61011861034c565b005b610134600480360381019061012f919061108d565b61044c565b604051610141919061150e565b60405180910390f35b610164600480360381019061015f9190611064565b61047a565b6040516101729291906114e5565b60405180910390f35b61019560048036038101906101909190611064565b6104da565b6040516101a29190611664565b60405180910390f35b6101c560048036038101906101c09190611064565b6104f2565b6040516101d29190611649565b60405180910390f35b6101f560048036038101906101f0919061110d565b610648565b005b610211600480360381019061020c9190611064565b6108cc565b005b61022d60048036038101906102289190611064565b6109f0565b60405161023a9190611649565b60405180910390f35b61024b610b5b565b6040516102589190611664565b60405180910390f35b610269610b61565b60405161027691906114c3565b60405180910390f35b610287610c20565b005b610291610ca8565b60405161029e91906113fe565b60405180910390f35b6102c160048036038101906102bc9190611149565b610cd1565b6040516102cf92919061149a565b60405180910390f35b6102e0610d25565b6040516102ed9190611664565b60405180910390f35b610310600480360381019061030b9190611149565b610d2b565b005b61031a610df6565b6040516103279190611664565b60405180910390f35b61034a60048036038101906103459190611064565b610dfc565b005b6005546003541015610393576040517f08c379a000000000000000000000000000000000000000000000000000000000815260040161038a90611529565b60405180910390fd5b600660009054906101000a900460ff16156103e3576040517f08c379a00000000000000000000000000000000000000000000000000000000081526004016103da90611629565b60405180910390fd5b6001600660006101000a81548160ff02191690831515021790555060014361040b9190611730565b6004819055507fd591083b0df4eced712cb423801dd06dacf91f4eda45aa6254de9f0bc5df42c56004546040516104429190611664565b60405180910390a1565b60007f150b7a023d4804d13e8c85fb27262cb750cf6ba9f9dd3bb30d90f482ceeb4b1f905095945050505050565b600080600660009054906101000a900460ff166000600260008673ffffffffffffffffffffffffffffffffffffffff1673ffffffffffffffffffffffffffffffffffffffff16815260200190815260200160002054141591509150915091565b60026020528060005260406000206000915090505481565b6104fa610fc0565b6000600260008473ffffffffffffffffffffffffffffffffffffffff1673ffffffffffffffffffffffffffffffffffffffff1681526020019081526020016000205490506000811415610582576040517f08c379a000000000000000000000000000000000000000000000000000000000815260040161057990611589565b60405180910390fd5b600180826105909190611730565b815481106105c7577f4e487b7100000000000000000000000000000000000000000000000000000000600052603260045260246000fd5b90600052602060002090600202016040518060400160405290816000820160009054906101000a900473ffffffffffffffffffffffffffffffffffffffff1673ffffffffffffffffffffffffffffffffffffffff1673ffffffffffffffffffffffffffffffffffffffff168152602001600182015481525050915050919050565b600554600354111561068f576040517f08c379a000000000000000000000000000000000000000000000000000000000815260040161068690611609565b60405180910390fd5b6000600260003373ffffffffffffffffffffffffffffffffffffffff1673ffffffffffffffffffffffffffffffffffffffff1681526020019081526020016000205414610711576040517f08c379a0000000000000000000000000000000000000000000000000000000008152600401610708906115e9565b60405180910390fd5b6000829050600160405180604001604052808573ffffffffffffffffffffffffffffffffffffffff16815260200184815250908060018154018082558091505060019003906000526020600020906002020160009091909190915060008201518160000160006101000a81548173ffffffffffffffffffffffffffffffffffffffff021916908373ffffffffffffffffffffffffffffffffffffffff160217905550602082015181600101555050600354600260003373ffffffffffffffffffffffffffffffffffffffff1673ffffffffffffffffffffffffffffffffffffffff1681526020019081526020016000208190555060036000815480929190610818906117d8565b91905055508073ffffffffffffffffffffffffffffffffffffffff1663b88d4fde3330856040518463ffffffff1660e01b815260040161085a93929190611450565b600060405180830381600087803b15801561087457600080fd5b505af1158015610888573d6000803e3d6000fd5b505050507f98c09d9949722bae4bd0d988d4050091c3ae7ec6d51d3c6bbfe4233593944e9e3384846040516108bf93929190611419565b60405180910390a1505050565b600660009054906101000a900460ff1661091b576040517f08c379a000000000000000000000000000000000000000000000000000000000815260040161091290611549565b60405180910390fd5b6000610926826109f0565b905060008160000151905060008190506000836020015190508173ffffffffffffffffffffffffffffffffffffffff1663b88d4fde3087846040518463ffffffff1660e01b815260040161097c93929190611450565b600060405180830381600087803b15801561099657600080fd5b505af11580156109aa573d6000803e3d6000fd5b505050507f010793bff862e09b4e26851caa636f0c6ca8c4065c8e319939d71ddca7cd1d168584836040516109e193929190611419565b60405180910390a15050505050565b6109f8610fc0565b6000600260008473ffffffffffffffffffffffffffffffffffffffff1673ffffffffffffffffffffffffffffffffffffffff1681526020019081526020016000205490506000811415610a80576040517f08c379a0000000000000000000000000000000000000000000000000000000008152600401610a7790611589565b60405180910390fd5b600060055460045483610a9391906116da565b610a9d9190611821565b905060018181548110610ad9577f4e487b7100000000000000000000000000000000000000000000000000000000600052603260045260246000fd5b90600052602060002090600202016040518060400160405290816000820160009054906101000a900473ffffffffffffffffffffffffffffffffffffffff1673ffffffffffffffffffffffffffffffffffffffff1673ffffffffffffffffffffffffffffffffffffffff16815260200160018201548152505092505050919050565b60035481565b60606001805480602002602001604051908101604052809291908181526020016000905b82821015610c1757838290600052602060002090600202016040518060400160405290816000820160009054906101000a900473ffffffffffffffffffffffffffffffffffffffff1673ffffffffffffffffffffffffffffffffffffffff1673ffffffffffffffffffffffffffffffffffffffff16815260200160018201548152505081526020019060010190610b85565b50505050905090565b610c28610ef4565b73ffffffffffffffffffffffffffffffffffffffff16610c46610ca8565b73ffffffffffffffffffffffffffffffffffffffff1614610c9c576040517f08c379a0000000000000000000000000000000000000000000000000000000008152600401610c93906115a9565b60405180910390fd5b610ca66000610efc565b565b60008060009054906101000a900473ffffffffffffffffffffffffffffffffffffffff16905090565b60018181548110610ce157600080fd5b90600052602060002090600202016000915090508060000160009054906101000a900473ffffffffffffffffffffffffffffffffffffffff16908060010154905082565b60055481565b610d33610ef4565b73ffffffffffffffffffffffffffffffffffffffff16610d51610ca8565b73ffffffffffffffffffffffffffffffffffffffff1614610da7576040517f08c379a0000000000000000000000000000000000000000000000000000000008152600401610d9e906115a9565b60405180910390fd5b600354811015610dec576040517f08c379a0000000000000000000000000000000000000000000000000000000008152600401610de3906115c9565b60405180910390fd5b8060058190555050565b60045481565b610e04610ef4565b73ffffffffffffffffffffffffffffffffffffffff16610e22610ca8565b73ffffffffffffffffffffffffffffffffffffffff1614610e78576040517f08c379a0000000000000000000000000000000000000000000000000000000008152600401610e6f906115a9565b60405180910390fd5b600073ffffffffffffffffffffffffffffffffffffffff168173ffffffffffffffffffffffffffffffffffffffff161415610ee8576040517f08c379a0000000000000000000000000000000000000000000000000000000008152600401610edf90611569565b60405180910390fd5b610ef181610efc565b50565b600033905090565b60008060009054906101000a900473ffffffffffffffffffffffffffffffffffffffff169050816000806101000a81548173ffffffffffffffffffffffffffffffffffffffff021916908373ffffffffffffffffffffffffffffffffffffffff1602179055508173ffffffffffffffffffffffffffffffffffffffff168173ffffffffffffffffffffffffffffffffffffffff167f8be0079c531659141344cd1fd0a4f28419497f9722a3daafe3b4186f6b6457e060405160405180910390a35050565b6040518060400160405280600073ffffffffffffffffffffffffffffffffffffffff168152602001600081525090565b600081359050610fff81611a96565b92915050565b60008083601f84011261101757600080fd5b8235905067ffffffffffffffff81111561103057600080fd5b60208301915083600182028301111561104857600080fd5b9250929050565b60008135905061105e81611aad565b92915050565b60006020828403121561107657600080fd5b600061108484828501610ff0565b91505092915050565b6000806000806000608086880312156110a557600080fd5b60006110b388828901610ff0565b95505060206110c488828901610ff0565b94505060406110d58882890161104f565b935050606086013567ffffffffffffffff8111156110f257600080fd5b6110fe88828901611005565b92509250509295509295909350565b6000806040838503121561112057600080fd5b600061112e85828601610ff0565b925050602061113f8582860161104f565b9150509250929050565b60006020828403121561115b57600080fd5b60006111698482850161104f565b91505092915050565b600061117e8383611382565b60408301905092915050565b61119381611764565b82525050565b6111a281611764565b82525050565b60006111b38261168f565b6111bd81856116a7565b93506111c88361167f565b8060005b838110156111f95781516111e08882611172565b97506111eb8361169a565b9250506001810190506111cc565b5085935050505092915050565b61120f81611776565b82525050565b61121e81611782565b82525050565b60006112316019836116c9565b915061123c826118b0565b602082019050919050565b60006112546017836116c9565b915061125f826118d9565b602082019050919050565b60006112776026836116c9565b915061128282611902565b604082019050919050565b600061129a6004836116b8565b91506112a582611951565b602082019050919050565b60006112bd601c836116c9565b91506112c88261197a565b602082019050919050565b60006112e06020836116c9565b91506112eb826119a3565b602082019050919050565b60006113036019836116c9565b915061130e826119cc565b602082019050919050565b60006113266026836116c9565b9150611331826119f5565b604082019050919050565b6000611349600c836116c9565b915061135482611a44565b602082019050919050565b600061136c6018836116c9565b915061137782611a6d565b602082019050919050565b604082016000820151611398600085018261118a565b5060208201516113ab60208501826113e0565b50505050565b6040820160008201516113c7600085018261118a565b5060208201516113da60208501826113e0565b50505050565b6113e9816117ce565b82525050565b6113f8816117ce565b82525050565b60006020820190506114136000830184611199565b92915050565b600060608201905061142e6000830186611199565b61143b6020830185611199565b61144860408301846113ef565b949350505050565b60006080820190506114656000830186611199565b6114726020830185611199565b61147f60408301846113ef565b81810360608301526114908161128d565b9050949350505050565b60006040820190506114af6000830185611199565b6114bc60208301846113ef565b9392505050565b600060208201905081810360008301526114dd81846111a8565b905092915050565b60006040820190506114fa6000830185611206565b6115076020830184611206565b9392505050565b60006020820190506115236000830184611215565b92915050565b6000602082019050818103600083015261154281611224565b9050919050565b6000602082019050818103600083015261156281611247565b9050919050565b600060208201905081810360008301526115828161126a565b9050919050565b600060208201905081810360008301526115a2816112b0565b9050919050565b600060208201905081810360008301526115c2816112d3565b9050919050565b600060208201905081810360008301526115e2816112f6565b9050919050565b6000602082019050818103600083015261160281611319565b9050919050565b600060208201905081810360008301526116228161133c565b9050919050565b600060208201905081810360008301526116428161135f565b9050919050565b600060408201905061165e60008301846113b1565b92915050565b600060208201905061167960008301846113ef565b92915050565b6000819050602082019050919050565b600081519050919050565b6000602082019050919050565b600082825260208201905092915050565b600082825260208201905092915050565b600082825260208201905092915050565b60006116e5826117ce565b91506116f0836117ce565b9250827fffffffffffffffffffffffffffffffffffffffffffffffffffffffffffffffff0382111561172557611724611852565b5b828201905092915050565b600061173b826117ce565b9150611746836117ce565b92508282101561175957611758611852565b5b828203905092915050565b600061176f826117ae565b9050919050565b60008115159050919050565b60007fffffffff0000000000000000000000000000000000000000000000000000000082169050919050565b600073ffffffffffffffffffffffffffffffffffffffff82169050919050565b6000819050919050565b60006117e3826117ce565b91507fffffffffffffffffffffffffffffffffffffffffffffffffffffffffffffffff82141561181657611815611852565b5b600182019050919050565b600061182c826117ce565b9150611837836117ce565b92508261184757611846611881565b5b828206905092915050565b7f4e487b7100000000000000000000000000000000000000000000000000000000600052601160045260246000fd5b7f4e487b7100000000000000000000000000000000000000000000000000000000600052601260045260246000fd5b7f4e65656420746f206465706f736974206d6f7265206e66747300000000000000600082015250565b7f4c75636b79207377617020696e2070726f6f6772657373000000000000000000600082015250565b7f4f776e61626c653a206e6577206f776e657220697320746865207a65726f206160008201527f6464726573730000000000000000000000000000000000000000000000000000602082015250565b7f3078303000000000000000000000000000000000000000000000000000000000600082015250565b7f4e6f206465706f73697420666f72206164647265737320666f756e6400000000600082015250565b7f4f776e61626c653a2063616c6c6572206973206e6f7420746865206f776e6572600082015250565b7f4e657720636170206d757374206265203e20636f756e74657200000000000000600082015250565b7f4465706f7369742066726f6d2074686973206164647265737320616c7265616460008201527f79206d6164650000000000000000000000000000000000000000000000000000602082015250565b7f506f6f6c2069732066756c6c0000000000000000000000000000000000000000600082015250565b7f4c75636b79207377617020616c726561647920656e6465640000000000000000600082015250565b611a9f81611764565b8114611aaa57600080fd5b50565b611ab6816117ce565b8114611ac157600080fd5b5056fea2646970667358221220a21f94422c26931d8bad86188c574beb37b8c7e94a7d6b0bebd8990e41798de764736f6c63430008040033",
  "linkReferences": {},
  "deployedLinkReferences": {}
}